{
  "contractName": "Faucet",
  "abi": [
    {
      "anonymous": false,
      "inputs": [
        {
          "indexed": true,
          "internalType": "address",
          "name": "from",
          "type": "address"
        },
        {
          "indexed": false,
          "internalType": "uint256",
          "name": "amount",
          "type": "uint256"
        }
      ],
      "name": "Deposit",
      "type": "event"
    },
    {
      "anonymous": false,
      "inputs": [
        {
          "indexed": true,
          "internalType": "address",
          "name": "previousOwner",
          "type": "address"
        },
        {
          "indexed": true,
          "internalType": "address",
          "name": "newOwner",
          "type": "address"
        }
      ],
      "name": "OwnershipTransferred",
      "type": "event"
    },
    {
      "anonymous": false,
      "inputs": [
        {
          "indexed": true,
          "internalType": "address",
          "name": "to",
          "type": "address"
        },
        {
          "indexed": false,
          "internalType": "uint256",
          "name": "amount",
          "type": "uint256"
        }
      ],
      "name": "Withdrawal",
      "type": "event"
    },
    {
      "stateMutability": "payable",
      "type": "fallback",
      "payable": true
    },
    {
      "inputs": [],
      "name": "owner",
      "outputs": [
        {
          "internalType": "address",
          "name": "",
          "type": "address"
        }
      ],
      "stateMutability": "view",
      "type": "function",
      "constant": true
    },
    {
      "inputs": [],
      "name": "renounceOwnership",
      "outputs": [],
      "stateMutability": "nonpayable",
      "type": "function"
    },
    {
      "inputs": [
        {
          "internalType": "address",
          "name": "newOwner",
          "type": "address"
        }
      ],
      "name": "transferOwnership",
      "outputs": [],
      "stateMutability": "nonpayable",
      "type": "function"
    },
    {
      "stateMutability": "payable",
      "type": "receive",
      "payable": true
    },
    {
      "inputs": [
        {
          "internalType": "uint256",
          "name": "withdraw_amount",
          "type": "uint256"
        },
        {
          "internalType": "address",
          "name": "token",
          "type": "address"
        }
      ],
      "name": "withdraw",
      "outputs": [],
      "stateMutability": "nonpayable",
      "type": "function"
    },
    {
      "inputs": [],
      "name": "donate",
      "outputs": [],
      "stateMutability": "payable",
      "type": "function",
      "payable": true
    }
  ],
  "bytecode": "0x608060405273f194afdf50b03e69bd7d057c1aa9e10c9954e4c9600260006101000a81548173ffffffffffffffffffffffffffffffffffffffff021916908373ffffffffffffffffffffffffffffffffffffffff16021790555073874069fa1eb16d44d622f2e0ca25eea172369bc1600360006101000a81548173ffffffffffffffffffffffffffffffffffffffff021916908373ffffffffffffffffffffffffffffffffffffffff1602179055503480156100ba57600080fd5b50600160008190555060006100d361017760201b60201c565b905080600160006101000a81548173ffffffffffffffffffffffffffffffffffffffff021916908373ffffffffffffffffffffffffffffffffffffffff1602179055508073ffffffffffffffffffffffffffffffffffffffff16600073ffffffffffffffffffffffffffffffffffffffff167f8be0079c531659141344cd1fd0a4f28419497f9722a3daafe3b4186f6b6457e060405160405180910390a35061017f565b600033905090565b610a468061018e6000396000f3fe60806040526004361061004d5760003560e01c8062f714ce146100f2578063715018a61461011b5780638da5cb5b14610132578063ed88c68e1461015d578063f2fde38b14610167576100a2565b366100a2573373ffffffffffffffffffffffffffffffffffffffff167fe1fffcc4923d04b559f4d29a8bfc6cda04eb5b0d3c460751c2402c5c5cc9109c346040516100989190610957565b60405180910390a2005b3373ffffffffffffffffffffffffffffffffffffffff167fe1fffcc4923d04b559f4d29a8bfc6cda04eb5b0d3c460751c2402c5c5cc9109c346040516100e89190610957565b60405180910390a2005b3480156100fe57600080fd5b50610119600480360381019061011491906106ed565b610190565b005b34801561012757600080fd5b506101306102f1565b005b34801561013e57600080fd5b5061014761042e565b6040516101549190610893565b60405180910390f35b610165610458565b005b34801561017357600080fd5b5061018e6004803603810190610189919061069b565b6104a8565b005b814710156101d3576040517f08c379a00000000000000000000000000000000000000000000000000000000081526004016101ca90610937565b60405180910390fd5b8073ffffffffffffffffffffffffffffffffffffffff1663a9059cbb33846040518363ffffffff1660e01b815260040161020e9291906108ae565b602060405180830381600087803b15801561022857600080fd5b505af115801561023c573d6000803e3d6000fd5b505050506040513d601f19601f8201168201806040525081019061026091906106c4565b61029f576040517f08c379a0000000000000000000000000000000000000000000000000000000008152600401610296906108f7565b60405180910390fd5b3373ffffffffffffffffffffffffffffffffffffffff167f7fcf532c15f0a6db0bd6d0e038bea71d30d808c7d98cb3bf7268a95bf5081b65836040516102e59190610957565b60405180910390a25050565b6102f9610654565b73ffffffffffffffffffffffffffffffffffffffff1661031761042e565b73ffffffffffffffffffffffffffffffffffffffff161461036d576040517f08c379a000000000000000000000000000000000000000000000000000000000815260040161036490610917565b60405180910390fd5b600073ffffffffffffffffffffffffffffffffffffffff16600160009054906101000a900473ffffffffffffffffffffffffffffffffffffffff1673ffffffffffffffffffffffffffffffffffffffff167f8be0079c531659141344cd1fd0a4f28419497f9722a3daafe3b4186f6b6457e060405160405180910390a36000600160006101000a81548173ffffffffffffffffffffffffffffffffffffffff021916908373ffffffffffffffffffffffffffffffffffffffff160217905550565b6000600160009054906101000a900473ffffffffffffffffffffffffffffffffffffffff16905090565b3373ffffffffffffffffffffffffffffffffffffffff167fe1fffcc4923d04b559f4d29a8bfc6cda04eb5b0d3c460751c2402c5c5cc9109c3460405161049e9190610957565b60405180910390a2565b6104b0610654565b73ffffffffffffffffffffffffffffffffffffffff166104ce61042e565b73ffffffffffffffffffffffffffffffffffffffff1614610524576040517f08c379a000000000000000000000000000000000000000000000000000000000815260040161051b90610917565b60405180910390fd5b600073ffffffffffffffffffffffffffffffffffffffff168173ffffffffffffffffffffffffffffffffffffffff161415610594576040517f08c379a000000000000000000000000000000000000000000000000000000000815260040161058b906108d7565b60405180910390fd5b8073ffffffffffffffffffffffffffffffffffffffff16600160009054906101000a900473ffffffffffffffffffffffffffffffffffffffff1673ffffffffffffffffffffffffffffffffffffffff167f8be0079c531659141344cd1fd0a4f28419497f9722a3daafe3b4186f6b6457e060405160405180910390a380600160006101000a81548173ffffffffffffffffffffffffffffffffffffffff021916908373ffffffffffffffffffffffffffffffffffffffff16021790555050565b600033905090565b60008135905061066b816109cb565b92915050565b600081519050610680816109e2565b92915050565b600081359050610695816109f9565b92915050565b6000602082840312156106ad57600080fd5b60006106bb8482850161065c565b91505092915050565b6000602082840312156106d657600080fd5b60006106e484828501610671565b91505092915050565b6000806040838503121561070057600080fd5b600061070e85828601610686565b925050602061071f8582860161065c565b9150509250929050565b61073281610983565b82525050565b6000610745602683610972565b91507f4f776e61626c653a206e6577206f776e657220697320746865207a65726f206160008301527f64647265737300000000000000000000000000000000000000000000000000006020830152604082019050919050565b60006107ab601883610972565b91507f5769746864726177696e672063555344206661696c65642e00000000000000006000830152602082019050919050565b60006107eb602083610972565b91507f4f776e61626c653a2063616c6c6572206973206e6f7420746865206f776e65726000830152602082019050919050565b600061082b603583610972565b91507f496e73756666696369656e742062616c616e636520696e20666175636574206660008301527f6f72207769746864726177616c207265717565737400000000000000000000006020830152604082019050919050565b61088d816109c1565b82525050565b60006020820190506108a86000830184610729565b92915050565b60006040820190506108c36000830185610729565b6108d06020830184610884565b9392505050565b600060208201905081810360008301526108f081610738565b9050919050565b600060208201905081810360008301526109108161079e565b9050919050565b60006020820190508181036000830152610930816107de565b9050919050565b600060208201905081810360008301526109508161081e565b9050919050565b600060208201905061096c6000830184610884565b92915050565b600082825260208201905092915050565b600061098e826109a1565b9050919050565b60008115159050919050565b600073ffffffffffffffffffffffffffffffffffffffff82169050919050565b6000819050919050565b6109d481610983565b81146109df57600080fd5b50565b6109eb81610995565b81146109f657600080fd5b50565b610a02816109c1565b8114610a0d57600080fd5b5056fea2646970667358221220ed1ae5e6af1e1e6ebebd3dd88694aa28a4850076d58c4ac6eb4e9abf3e9d793364736f6c63430008000033",
  "immutableReferences": {},
  "source": "pragma solidity >=0.8.0;\r\n\r\nimport \"../node_modules/openzeppelin-solidity/contracts/security/ReentrancyGuard.sol\";\r\nimport \"../node_modules/openzeppelin-solidity/contracts/utils/math/SafeMath.sol\";\r\nimport \"../node_modules/openzeppelin-solidity/contracts/access/Ownable.sol\";\r\nimport \"../node_modules/openzeppelin-solidity/contracts/token/ERC20/ERC20.sol\";\r\n\r\nimport \"../node_modules/openzeppelin-solidity/contracts/token/ERC20/IERC20.sol\";\r\n\r\ncontract Faucet is ReentrancyGuard, Ownable {\r\n    event Withdrawal(address indexed to, uint256 amount);\r\n    event Deposit(address indexed from, uint256 amount);\r\n\r\n    address Celo = 0xF194afDf50B03e69Bd7D057c1Aa9e10c9954E4C9;\r\n    address cUSD = 0x874069Fa1Eb16D44d622F2e0Ca25eeA172369bC1;\r\n\r\n    function withdraw(uint256 withdraw_amount, address token) public {\r\n        // TODO: Prevent withdrawals over certain amount, check tokens\r\n        // require(withdraw_amount <= 0.1 ether, \"withdraw amount too high\");\r\n        // require(token == Celo || token == cUSD, \"token is not cGLD or cUSD\");\r\n\r\n        require(\r\n            address(this).balance >= withdraw_amount,\r\n            \"Insufficient balance in faucet for withdrawal request\"\r\n        );\r\n\r\n        require(\r\n            IERC20(token).transfer(msg.sender, withdraw_amount),\r\n            \"Withdrawing cUSD failed.\"\r\n        );\r\n        emit Withdrawal(msg.sender, withdraw_amount);\r\n    }\r\n\r\n    function donate() external payable {\r\n        emit Deposit(msg.sender, msg.value);\r\n    }\r\n\r\n    receive() external payable {\r\n        emit Deposit(msg.sender, msg.value);\r\n    }\r\n\r\n    fallback() external payable {\r\n        emit Deposit(msg.sender, msg.value);\r\n    }\r\n}\r\n",
  "sourcePath": "C:/Users/Brittany/developer/dApps/green-deeds/contracts/Faucet.sol",
  "compiler": {
    "name": "solc",
    "version": "0.8.0+commit.c7dfd78e.Emscripten.clang"
  },
  "schemaVersion": "3.3.4",
  "updatedAt": "2021-04-11T00:02:49.710Z",
  "networkType": "ethereum",
  "devdoc": {
    "kind": "dev",
    "methods": {
      "owner()": {
        "details": "Returns the address of the current owner."
      },
      "renounceOwnership()": {
        "details": "Leaves the contract without owner. It will not be possible to call `onlyOwner` functions anymore. Can only be called by the current owner. NOTE: Renouncing ownership will leave the contract without an owner, thereby removing any functionality that is only available to the owner."
      },
      "transferOwnership(address)": {
        "details": "Transfers ownership of the contract to a new account (`newOwner`). Can only be called by the current owner."
      }
    },
    "version": 1
  },
  "userdoc": {
    "kind": "user",
    "methods": {},
    "version": 1
  }
}